:020000040800F2
:1000000000800120F555000821070008230700089B
:10001000250700082707000829070008000000003E
:10002000000000000000000000000000811800082F
:100030002B0700080000000021190008851900089E
:100040004556000845560008455600084556000824
:100050004556000845560008455600084556000814
:100060004556000845560008455600084556000804
:1000700045560008455600084556000845560008F4
:100080004556000845560008455600080000000087
:1000900000000000000000000000000045560008BD
:1000A000455600082D07000845560008455600082B
:1000B00045560008455600084556000845560008B4
:1000C00045560008455600084556000845560008A4
:1000D0004556000845560008455600080000000037
:1000E0004556000845560008455600080000000027
:1000F000000000000000000000000000455600085D
:100100000000000045560008455600084556000806
:1001100000000000000000000000000000000000DF
:100120004556000845560008455600084556000843
:10013000455600080000000000000000000000001C
:10014000000000000000000000000000455600080C
:100150004556000845560008455600084556000813
:100160004556000845560008000000000000000049
:10017000000000000000000000000000000000007F
:1001800000000000455600080000000000000000CC
:0401900045560008C8
:1001A000844641EA000313F003036DD1403A41D382
:1001B00051F8043B40F8043B51F8043B40F8043B41
:1001C00051F8043B40F8043B51F8043B40F8043B31
:1001D00051F8043B40F8043B51F8043B40F8043B21
:1001E00051F8043B40F8043B51F8043B40F8043B11
:1001F00051F8043B40F8043B51F8043B40F8043B01
:1002000051F8043B40F8043B51F8043B40F8043BF0
:1002100051F8043B40F8043B51F8043B40F8043BE0
:1002200051F8043B40F8043B51F8043B40F8043BD0
:10023000403ABDD2303211D351F8043B40F8043B70
:1002400051F8043B40F8043B51F8043B40F8043BB0
:1002500051F8043B40F8043B103AEDD20C3205D380
:1002600051F8043B40F8043B043AF9D2043208D078
:10027000D2071CBF11F8013B00F8013B01D30B88EA
:1002800003806046704700BF082A13D38B078DD0C8
:1002900010F003038AD0C3F10403D21ADB071CBF9A
:1002A00011F8013B00F8013B80D331F8023B20F804
:1002B000023B7BE7043AD9D3013A11F8013B00F83D
:1002C000013BF9D20B7803704B7843708B788370C5
:1002D0006046704753B94AB9002908BF00281CBFBF
:1002E0004FF0FF314FF0FF3000F00CB8ADF1080CCB
:1002F0006DE904CE05F0E8FADDF804E0DDE902235B
:1003000004B07047704700BF10B5054C237833B96F
:10031000044B13B10448AFF300800123237010BDD8
:100320003C04002000000000745B000808B5034B8B
:100330001BB103490348AFF3008008BD0000000073
:1003400040040020745B0008034B0360034B0B6008
:1003500080231360704700BF580600205804002017
:1003600030B58BB000240594069407940894099442
:100370000194224B1A6B42F004021A631A6B02F0CA
:1003800004020192019A02941A6B42F080021A63ED
:100390001A6B02F080020292029A03941A6B42F0E6
:1003A00001021A631A6B02F001020392039A049489
:1003B0001A6B42F002021A631B6B03F002030493F0
:1003C000049B0F4D22462021284600F01FFB4FF4CE
:1003D000005305930B4B0693079405A90A4800F0B8
:1003E0003FFA20230593012306930794089405A957
:1003F000284600F035FA0BB030BD00BF003802408F
:1004000000000240000021100008024010B5EAB0D0
:100410000DF12C0C274C0FCCACE80F0023688CF8A6
:10042000003007AC244B0FCB84E80F0021465EA8B8
:1004300005F09CF90024204604F037FD102203A9A2
:10044000204604F03FFD1D4C4FF47A7310225EA944
:10045000204601F0C2F80023009303AB10220BA941
:1004600010A804F045F810235EAA66A910A804F0AD
:1004700055F84FF47A73102266A9204601F0ADF8C2
:100480000123009303AB10220BA910A804F030F84D
:10049000102366AA62A910A804F087F84FF47A73B3
:1004A000102262A9204601F098F84FF47A7001F00A
:1004B00044F9ADE7B45B0008C85B0008B006002053
:1004C00008B50268034B9A4200D008BD00F05EF9FF
:1004D000FBE700BF0000014072B6FEE708B50A481E
:1004E0000A4B03604FF4E133436000238360C36031
:1004F00003610C2242618361C36101F03FF800B9DE
:1005000008BDFFF7E9FF00BFB0060020004400402F
:1005100000B595B03022002108A805F0D5F80023D9
:100520000393049305930693079301931F4A116C59
:1005300041F080511164126C02F080520192019AD4
:1005400002931B490A6822F4404242F400420A60C6
:100550000A6802F440420292029A022108910122A2
:100560000B9210220C920E910F9310924FF4A873DD
:100570001193042312930723139308A800F04CFA55
:1005800080B90F23039302210491002305934FF4B4
:1005900080520692079303A800F09EFC20B915B084
:1005A0005DF804FBFFF798FFFFF796FF0038024065
:1005B0000070004000B589B000F0CEF8FFF7A8FF4A
:1005C000FFF7CEFEFFF78AFF0DF1040C084C0FCCAD
:1005D000ACE80F0094E807008CE80700002101A8B0
:1005E00001F076F8034B186001F06DF8FEE700BFEC
:1005F0008C5B0008AC06002000B583B0002200929E
:100600000D4B596C41F480415964596C01F480419F
:10061000009100990192196C41F0805119641B6C92
:1006200003F080530193019B0F216FF0010000F054
:10063000D1F803B05DF804FB0038024000B589B082
:100640000023039304930593069307930268144BC6
:100650009A4202D009B05DF804FB0021019103F534
:10066000FA331A6C42F400321A641A6C02F4003243
:100670000192019A02911A6B42F001021A631B6BFC
:1006800003F001030293029B0C23039302230493C0
:100690000723079303A9034800F0E2F8DAE700BF55
:1006A000004400400000024010B588B0014600221E
:1006B000192000F08FF8192000F0C4F800240194EC
:1006C000134B5A6C42F001025A645B6C03F0010355
:1006D0000193019B02A903A800F0D4FC00F0C2FC26
:1006E0000C4BA3FB00239B0C013B0B480B4A026005
:1006F00040F2E732C26043600461846000F002FEB1
:1007000010B1012008B010BD034800F0DAFCF9E791
:100710000038024083DE1B43F00600200000014049
:10072000FEE7FEE7FEE7FEE7FEE7704708B5024892
:1007300000F0DCFC08BD00BFF0060020054BD3F83C
:10074000882042F47002C3F888204FF000629A605B
:10075000704700BF00ED00E008B50B4B1A6842F48B
:1007600000721A601A6842F480621A601A6842F4D1
:1007700080721A60032000F01BF80020FFF794FF3E
:10078000FFF73AFF002008BD003C0240034A116811
:10079000034B1B780B441360704700BF30070020E9
:1007A00004000020014B1868704700BF300700208C
:1007B000074AD36823F4E0631B041B0C000200F417
:1007C000E060034343F0BF6343F40033D3607047FA
:1007D00000ED00E000B5194BDB68C3F30223C3F161
:1007E000070CBCF1040F28BF4FF0040C03F1040EFA
:1007F000BEF1060F18D9033B4FF0FF3E0EFA0CFC7A
:1008000021EA0C0199400EFA03F322EA030319438B
:1008100000280BDB0901C9B200F1604000F561401E
:1008200080F800135DF804FB0023E5E700F00F00FB
:100830000901C9B2024B1954F4E700BF00ED00E012
:1008400014ED00E0002807DB00F01F02400901233F
:100850009340024A42F82030704700BF00E100E0B8
:1008600000230F2B00F2C880F0B583B03AE00422D9
:1008700000E00022AA4032430234604D45F82420B3
:100880005F4A14686FEA0C0224EA0C054E6816F4FD
:10089000803F01D04CEA0405594C2560646802EAA7
:1008A00004054E6816F4003F01D04CEA0405544C90
:1008B0006560A46802EA04054E6816F4801F01D042
:1008C0004CEA04054E4CA560E46822404D6815F4DE
:1008D000001F01D04CEA0402494CE26001330F2BA7
:1008E00000F2888001229A400C6804EA020C32EA85
:1008F0000404F3D14C68651E012D03D9112C01D0DD
:10090000122C12D185685E000324B44025EA040548
:10091000CC68B4402C438460456825EA02054C68E5
:10092000C4F300129A402A434260C5684FEA430E5E
:10093000032404FA0EF4E24325EA04058C6804FA61
:100940000EF42C43C4604C68022C01D0122C0FD141
:10095000DD08083550F8257003F00704A6000F24C1
:10096000B44027EA04070C69B4403C4340F82540F2
:10097000046814404A6802F0030202FA0EF22243AD
:1009800002604A6812F0805FA8D0002201921D4ADE
:10099000546C44F480445464526C02F480420192DA
:1009A000019A9C08A51C154A52F8256003F0030221
:1009B00095000F22AA4026EA0206134A90423FF40D
:1009C00058AF02F5806290420ED002F580629042EC
:1009D0000CD002F5806290420AD002F5806290420B
:1009E0003FF445AF072245E7012243E7022241E7F2
:1009F00003223FE703B0F0BD704700BF003801405D
:100A0000003C014000380240000002400AB1816110
:100A10007047090481617047002800F0DA8170B5E1
:100A200082B00446036813F0010F3BD09F4B9B68D4
:100A300003F00C03042B2CD09C4B9B6803F00C039D
:100A4000082B21D06368B3F5803F4FD0B3F5A02FBA
:100A500052D0964B1A6822F480321A601A6822F437
:100A600080221A606368002B50D0FFF79BFE05467A
:100A70008E4B1B6813F4003F14D1FFF793FE401B0D
:100A80006428F5D90320ABE1884B5B6813F4800F31
:100A9000D8D0864B1B6813F4003F03D06368002B4B
:100AA00000F09981236813F0020F54D07F4B9B68AC
:100AB00013F00C0F3ED07D4B9B6803F00C03082B0A
:100AC00033D0E368002B68D0794B01221A60FFF71E
:100AD00069FE0546754B1B6813F0020F54D1FFF7F2
:100AE00061FE401B0228F5D9032079E16F4A1368A3
:100AF00043F480331360B5E76C4B1A6842F48022EC
:100B00001A601A6842F480321A60ABE7FFF74AFEB7
:100B10000546664B1B6813F4003FC3D0FFF742FE47
:100B2000401B6428F5D903205AE1604B5B6813F43D
:100B3000800FC6D15D4B1B6813F0020F03D0E36832
:100B4000012B40F04A81594A136823F0F8032169C8
:100B500043EAC1031360236813F0080F42D06369AE
:100B60006BB3534B0122C3F8802EFFF71BFE0546E3
:100B70004E4B5B6F13F0020F34D1FFF713FE401B97
:100B80000228F5D903202BE1484A136823F0F80323
:100B9000216943EAC1031360DDE7454B00221A6077
:100BA000FFF700FE0546414B1B6813F0020FD2D041
:100BB000FFF7F8FD401B0228F5D9032010E13C4B5C
:100BC0000022C3F8802EFFF7EDFD0546374B5B6F23
:100BD00013F0020F06D0FFF7E5FD401B0228F5D900
:100BE0000320FDE0236813F0040F77D02F4B1B6C1C
:100BF00013F0805F33D1002301932C4B1A6C42F029
:100C000080521A641B6C03F080530193019B0125F1
:100C1000284B1B6813F4807F23D0A368012B34D0AA
:100C2000052B38D0214B1A6F22F001021A671A6F78
:100C300022F004021A67A368002B3DD0FFF7B2FD33
:100C400006461A4B1B6F13F0020F46D1FFF7AAFDA1
:100C5000801B41F288339842F3D90320C0E000257D
:100C6000D6E7144A136843F480731360FFF79AFDC4
:100C70000646104B1B6813F4807FCED1FFF792FD20
:100C8000801B0228F5D90320AAE0084A136F43F01D
:100C900001031367CFE7054B1A6F42F004021A678E
:100CA0001A6F42F001021A67C5E700BF0038024020
:100CB0000000474200700040FFF774FD06464F4BAE
:100CC0001B6F13F0020F08D0FFF76CFD801B41F281
:100CD00088339842F3D9032082E0E5B9A369002B59
:100CE0007DD0464A926802F00C02082A51D0022BAD
:100CF00017D0434B00221A66FFF754FD04463F4BC2
:100D00001B6813F0007F42D0FFF74CFD001B022848
:100D1000F5D9032064E0394A136C23F0805313643F
:100D2000DCE7374B00221A66FFF73CFD0546334BE4
:100D30001B6813F0007F06D0FFF734FD401B02282C
:100D4000F5D903204CE0E369226A1343626A43EA5F
:100D50008213A26A5208013A43EA0243E26A43EA72
:100D60000263264A5360264B01221A66FFF71AFDDA
:100D70000446224B1B6813F0007F06D1FFF712FDDB
:100D8000001B0228F5D903202AE0002028E00020DB
:100D900026E0012B26D0194B5B6803F48001E26941
:100DA000914221D103F03F02216A8A421ED1616A39
:100DB00047F6C0721A408A421AD103F44032A16A3F
:100DC0008A4217D103F07063E26A934214D1002083
:100DD00006E001207047012002E0012000E0002031
:100DE00002B070BD0120FBE70120F9E70120F7E721
:100DF0000120F5E70120F3E70120F1E70038024088
:100E00000000474208B5314B9B6803F00C03042BEC
:100E100057D0082B57D12D4B5A6802F03F025B6820
:100E200013F4800F2AD0294B5968C1F3881C4FEA6C
:100E30004C11B1EB0C006EEB0E0E4FEA8E1343EA31
:100E400090638101091A63EB0E03DB0043EA5173DF
:100E5000C90011EB0C0C43F10003590200234FEAC7
:100E60004C2041EADC51FFF735FA184B5B68C3F3BD
:100E7000014301335B00B0FBF3F025E0134B5968ED
:100E8000C1F3881C4FEA4C11B1EB0C006EEB0E0E57
:100E90004FEA8E1343EA90638101091A63EB0E0354
:100EA000DB0043EA5173C90011EB0C0C43F1000362
:100EB000990200234FEA8C2041EA9C51FFF70AFA7D
:100EC000D3E7034800E0034808BD00BF00380240F4
:100ED00000127A000024F400002800F09B8070B516
:100EE0000D4604464F4B1B6803F00F038B4208D29C
:100EF000CBB24C4A1370136803F00F038B4240F0DF
:100F00008B80236813F0020F17D013F0040F04D066
:100F1000454A936843F4E0539360236813F0080F45
:100F200004D0414A936843F4604393603E4A936817
:100F300023F0F003A1680B439360236813F0010FC3
:100F400032D06368012B21D09A1E012A25D9364A56
:100F5000126812F0020F61D033498A6822F003024E
:100F600013438B60FFF71EFC06462F4B9B6803F074
:100F70000C036268B3EB820F16D0FFF713FC801BE3
:100F800041F288339842F0D9032042E0264A1268A1
:100F900012F4003FE0D101203BE0234A126812F036
:100FA000007FD9D1012034E01E4B1B6803F00F03F2
:100FB000AB4207D9EAB21B4B1A701B6803F00F0350
:100FC000AB422DD1236813F0040F06D0164A936864
:100FD00023F4E053E1680B439360236813F0080F98
:100FE00007D0114A936823F46043216943EAC1039F
:100FF0009360FFF707FF0C4B9B68C3F303130B4A87
:10100000D35CD8400A4B18600A4B1868FFF74CFBBA
:10101000002070BD012070470120FAE70120F8E7A9
:101020000120F6E7003C024000380240D85B00088F
:101030000000002008000020014B1868704700BF26
:101040000000002008B5FFF7F7FF044B9B68C3F3CF
:101050008223034AD35CD84008BD00BF0038024059
:10106000E85B000808B5FFF7E7FF044B9B68C3F394
:101070004233034AD35CD84008BD00BF0038024069
:10108000E85B00080F2303600B4B9A6802F0030231
:1010900042609A6802F0F00282609A6802F4E052BC
:1010A000C2609B68DB0803F4E0530361034B1B68D9
:1010B00003F00F030B60704700380240003C024011
:1010C00070470268D36843F00103D36002689368F5
:1010D00003F00703062B03D0136843F001031360EA
:1010E00000207047704770477047704710B504463E
:1010F00003681A6912F0020F11D0DA6812F0020FB9
:101100000DD06FF002021A610123037703689B6917
:1011100013F0030F70D0FFF7E6FF00232377236857
:101120001A6912F0040F12D0DA6812F0040F0ED010
:101130006FF004021A610223237723689B6913F47A
:10114000407F5FD02046FFF7CEFF00232377236840
:101150001A6912F0080F12D0DA6812F0080F0ED0D8
:101160006FF008021A61042323772368DB6913F008
:10117000030F4ED02046FFF7B6FF002323772368E6
:101180001A6912F0100F12D0DA6812F0100F0ED098
:101190006FF010021A61082323772368DB6913F4C8
:1011A000407F3DD02046FFF79EFF00232377236832
:1011B0001A6912F0010F03D0DA6812F0010F36D16C
:1011C00023681A6912F0800F03D0DA6812F0800FDA
:1011D00034D123681A6912F0400F03D0DA6812F094
:1011E000400F32D123681A6912F0200F03D0DA6859
:1011F00012F0200F30D110BDFFF774FF2046FFF72B
:1012000073FF8AE72046FFF76DFF2046FFF76CFF6C
:101210009BE72046FFF766FF2046FFF765FFACE738
:101220002046FFF75FFF2046FFF75EFFBDE76FF048
:1012300001021A612046FFF743F9C1E76FF080020F
:101240001A61204600F079F8C3E76FF040021A6196
:101250002046FFF74AFFC5E76FF020021A612046DB
:1012600000F06AF8C7E700000368254A90420ED0F4
:10127000B0F1804F0BD0A2F57C42904207D002F52E
:101280008062904203D002F58062904203D123F045
:1012900070034A6813431A4A90421AD0B0F1804F43
:1012A00017D0A2F57C42904213D002F580629042A2
:1012B0000FD002F5806290420BD002F59A32904234
:1012C00007D002F58062904203D002F5806290421E
:1012D00003D123F44073CA68134323F080034A699F
:1012E000134303608B68C3620B688362044B9842AC
:1012F00002D00123436170470B690363F9E700BF24
:1013000000000140B0B110B5044690F83D3063B123
:10131000022384F83D30214651F8040BFFF7A4FF67
:10132000012384F83D30002010BD80F83C30FFF7E9
:10133000C7FEEDE7012070477047704738B5044697
:101340000268136923F44053C1680B431361836837
:101350000269134342691343C2691A430168CB68A7
:1013600023F4164323F00C031343CB600268536944
:1013700023F4407381690B435361C369B3F5004F94
:1013800035D00368604A934200F0918002F5806294
:10139000934200F08C80FFF755FE0021031849416D
:1013A0001B1841F10001C90041EA5371DB00181814
:1013B00063684FEA83024FEA937341F10001FEF73D
:1013C00089FF524DA5FB00325109642303FB110331
:1013D0001B013233A5FB03235B0903F0F00202EB90
:1013E000011203F00F03216813448B608AE0036845
:1013F000454A93422FD002F5806293422BD0FFF7EB
:1014000021FE0023021843EB0301121841F10001F1
:10141000C90041EA5271D200101841F1000162681E
:1014200092185B41FEF756FF384DA5FB003251097B
:10143000642303FB1103DB003233A5FB03235B09A9
:101440005A0002F4F87202EB011203F0070321685C
:1014500013448B6056E0FFF705FE0023021843EBB0
:101460000301121841F10001C90041EA5271D20092
:10147000101841F10001626892185B41FEF72AFFE3
:10148000224DA5FB00325109642303FB1103DB004D
:101490003233A5FB03235B095A0002F4F87202EB16
:1014A000011203F00703216813448B602AE0FFF761
:1014B000D9FD0021031849411B1841F10001C90061
:1014C00041EA5371DB00181863684FEA83024FEA60
:1014D000937341F10001FEF7FDFE0C4DA5FB0032B8
:1014E0005109642303FB11031B013233A5FB0323C2
:1014F0005B0903F0F00202EB011203F00F03216815
:1015000013448B6038BD00BF001001401F85EB51B4
:101510002DE9F84305460F4616469946DDF820802A
:101520002C68246837EA04030CBF4FF0010C4FF01D
:10153000000CB4451FD1B8F1FF3FF1D0B8F1000F56
:1015400005D0FFF72FF9A0EB09004045E8D92A683C
:10155000D36823F4D073D3602A68536923F001035E
:101560005361202385F8393085F83A30002385F817
:101570003830032000E00020BDE8F88358B310B5F0
:10158000044690F839300BB3242384F839302268AC
:10159000D36823F40053D3602046FFF7CFFE2268C0
:1015A000136923F4904313612268536923F02A03DB
:1015B00053612268D36843F40053D3600020E06392
:1015C000202384F8393084F83A3010BD80F8383060
:1015D000FFF734F8D8E7012070472DE9F04383B0D6
:1015E0001E4690F83930DBB2202B56D104460D460A
:1015F0009046002955D0002A55D090F83830012B5C
:1016000053D0012380F838304FF00009C0F83C90E7
:10161000212380F83930FFF7C5F80746A4F8248065
:10162000A4F8268084F8389010E000963B4600220B
:1016300080212046FFF76CFF002838D12B882268D4
:10164000C3F3080353602369CBB90235E38C9BB223
:10165000BBB1E28C92B2013A92B2E284A368B3F5D4
:10166000805FE2D000963B46002280212046FFF7B3
:101670004FFFF0B915F8012B23685A60E6E70135F2
:10168000E4E700963B46002240212046FFF740FF5A
:1016900088B9202384F8393000E0022003B0BDE887
:1016A000F0830120FAE70120F8E70220F6E70320A3
:1016B000F4E70320F2E70320F0E7842801D00330A9
:1016C00070470020704708B500F028FD002008BDD5
:1016D0002DE9F04387B004460F464569BDB18669E0
:1016E000AEB1D0F80480D0F80090B0F90800FFF750
:1016F000E4FF0296019500903B4622694946404628
:1017000000F09CFC0590059807B0BDE8F083656883
:101710002668D4F81080B4F90800FFF7CEFF05ABB7
:10172000019300903B461FFA88F23146284600F0AC
:10173000C0FC0128E7D00020E6E708B500B9012089
:1017400000F036FE002008BD00F1080343604FF0B2
:10175000FF328260C360036100230360704700238F
:101760000361704743684B609A688A605160996072
:101770000861036801330360704730B40D68B5F148
:10178000FF3F11D000F108031C465B681A68AA42AB
:10179000FAD963684B6099608C6061600861036886
:1017A0000133036030BC70470469F2E703694168A4
:1017B00082688A60416851605A68824206D000227D
:1017C00002611A68013A1A601868704782685A60A4
:1017D000F5E7000082B0002301930D4B1B68B3F1C5
:1017E000FF3F08D04FF0500383F31188BFF36F8F92
:1017F000BFF34F8FFEE74FF0500383F31188BFF321
:101800006F8FBFF34F8F019B002BFCD002B070474E
:101810000C00002008480068006880F308884FF03A
:10182000000080F3148862B661B6BFF34F8FBFF338
:101830006F8F00DF00BF000008ED00E0DFF80C0054
:10184000016841F4700101607047000088ED00E01C
:101850004FF0807340F8043C21F0010140F8081C6F
:10186000054B40F80C3C40F8202C6FF0020340F888
:10187000243C4438704700BFD51700080000000022
:10188000074B19680868B0E8F04F80F30988BFF388
:101890006F8F4FF0000080F311887047AFF3008026
:1018A000544300204FF0500383F31188BFF36F8F30
:1018B000BFF34F8F0B4A136801331360012B00D025
:1018C00070474FF0E023D3F8043D13F0FF0FF7D03B
:1018D0004FF0500383F31188BFF36F8FBFF34F8F27
:1018E000FEE700BF0C000020094B1B6843B94FF016
:1018F000500383F31188BFF36F8FBFF34F8FFEE761
:10190000013B034A13600BB983F31188704700BF92
:101910000C0000200000000000000000000000009B
:10192000EFF30980BFF36F8F154B1A681EF0100F8D
:1019300008BF20ED108A20E9F04F10602DE9090062
:101940004FF0500080F31188BFF34F8FBFF36F8FBC
:1019500000F054FD4FF0000080F3118809BC1968B5
:101960000868B0E8F04F1EF0100F08BFB0EC108A06
:1019700080F30988BFF36F8F704700BFAFF300801B
:101980005443002008B54FF0500383F31188BFF390
:101990006F8FBFF34F8F00F003FC28B14FF0E023AF
:1019A0004FF08052C3F8042D002383F3118808BD43
:1019B0004FF0E022002313619361054B1B6805493A
:1019C000A1FB03139B09013B53610723136170477C
:1019D00000000020D34D62104FF0E023D3F8002D1B
:1019E0003D4B9A421CD04FF0E023D3F8002D3B4BE7
:1019F0009A421ED030B583B0394B1A78D2B20192D8
:101A0000FF221A701B78DBB28DF803309DF803308B
:101A100003F05003334A1370334B07221A601BE064
:101A20004FF0500383F31188BFF36F8FBFF34F8FD5
:101A3000FEE74FF0500383F31188BFF36F8FBFF3BE
:101A40004F8FFEE7284A1368013B13609DF803306F
:101A50005B00DBB28DF803309DF8033013F0800F8C
:101A6000F0D1214B1B68032B08D04FF0500383F3B8
:101A70001188BFF36F8FBFF34F8FFEE71B021A4A27
:101A8000136003F4E0631360019BDBB2144A13702C
:101A90004FF0E024D4F8203D43F47003C4F8203D17
:101AA000D4F8203D43F07043C4F8203DFFF780FF99
:101AB00000250E4B1D60FFF7C1FED4F8343F43F004
:101AC0004043C4F8343FFFF7A5FE00F097FCFFF752
:101AD00081FE284603B030BD71C20F4170C20F4174
:101AE00000E400E034070020380700200C0000204C
:101AF000124A12F0070F1ED0D11D21F00701C1F5C7
:101B0000705313440A460E4802600021416013449A
:101B1000083B23F007030B48036059601960991ACA
:101B200051601360084B1960084B1960084B4FF067
:101B300000421A6070474FF47053E4E740070020FA
:101B40004C4300203C070020484300204443002031
:101B500040430020164B1A461B688342FBD3516852
:101B600002EB010C844509D0416800EB010C634590
:101B700009D00360904219D010607047406801445A
:101B800051601046F0E710B40A4C2468A3420BD011
:101B90005B681944416013681B680360904200D081
:101BA00010605DF8044B70470460F7E7704700BFB2
:101BB0004C4300203C07002070B5054600F0E8FAD1
:101BC000344B1B68A3B1344B1B681D424AD135B15D
:101BD000083515F0070F02D025F007050835002D50
:101BE00042D02E4B1B68AB424DD32D4A146804E003
:101BF000FFF77EFFE7E722461C466368AB4202D24E
:101C00002368002BF7D1234B1B68A3423DD01668F5
:101C100008362368136063685B1B102B10D96019AA
:101C200010F0070F08D04FF0500383F31188BFF373
:101C30006F8FBFF34F8FFEE743606560FFF78AFF4A
:101C4000626816490B689B1A0B60164909688B423B
:101C500001D214490B60104B1B68134363600023CF
:101C6000236002E0002600E0002600F025FB16F0CD
:101C7000070F0CD04FF0500383F31188BFF36F8F21
:101C8000BFF34F8FFEE70026EFE70026EDE7304673
:101C900070BD00BF3C0700204043002044430020AB
:101CA0004C4300204843002080B338B50446A0F1DF
:101CB000080550F8043C164A1268134208D14FF048
:101CC000500383F31188BFF36F8FBFF34F8FFEE78D
:101CD00050F8081C41B14FF0500383F31188BFF353
:101CE0006F8FBFF34F8FFEE723EA020340F8043CF7
:101CF00000F04EFA54F8041C064A13680B441360B3
:101D00002846FFF727FF00F0D7FA38BD704700BF1D
:101D10004043002044430020084B1B681B6823B944
:101D2000074B4FF0FF321A607047044B1B68DB68AB
:101D3000DB685A68024B1A60704700BF58430020A6
:101D4000304400202DE9F04707469846089DDDF80D
:101D500024900A9C266B02F18042013A06EB82062F
:101D600026F0070600293AD08E464FF0000CBCF151
:101D70000F0F0BD81EF80C2004EB0C0383F8342053
:101D80001EF80C3013B10CF1010CF0E7002384F8BD
:101D90004330062D00D90625E56265644FF0000A40
:101DA000C4F848A0201DFFF7DAFC04F11800FFF783
:101DB000D6FC2461C5F10705A5616462C4F84CA096
:101DC00084F850A0424639463046FFF741FD206076
:101DD000B9F1000F01D0C9F80040BDE8F087002339
:101DE00084F83430D5E7000038B5002407E004EB70
:101DF000840293000E481844FFF7A6FC0134062C19
:101E0000F5D90C4D2846FFF79FFC0B4C2046FFF7F9
:101E10009BFC0A48FFF798FC0948FFF795FC094826
:101E2000FFF792FC084B1D60084B1C6038BD00BFDB
:101E3000604300200444002018440020384400205F
:101E40006444002050440020584300205C4300209C
:101E500010B50446FFF726FD214A136801331360CD
:101E6000204B1B685BB1204B1B686BB91D4B1B687B
:101E7000DA6AE36A9A4207D81A4B1C6004E0194BED
:101E80001C601368012B28D0184A136801331360B3
:101E9000E06A01238340164A11680B43136000EB8C
:101EA0008000211D134B03EB8000FFF75BFCFFF765
:101EB0001BFD0D4B1B687BB10A4B1B68DA6AE36A9A
:101EC0009A4209D24FF0E0234FF08052C3F8042D1C
:101ED000BFF34F8FBFF36F8F10BDFFF785FFD3E7C1
:101EE000EC430020544300204C440020FC430020DD
:101EF000004400206043002010B5044690F85130A3
:101F000063B1012B11D0022B0ED04FF0500383F39D
:101F10001188BFF36F8FBFF34F8FFEE7006BFFF7A2
:101F2000C3FE2046FFF7C0FE10BDFFF7BDFEFBE776
:101F30000F4B1B68D3B110B5FFF7B4FC0D4BDB683A
:101F4000DC68201DFFF732FC0B4A1368013B13606D
:101F5000074A1368013B1360FFF7C6FC2046FFF7F2
:101F6000CBFF034B1B68002BE6D110BD704700BFB1
:101F7000F043002064440020EC43002008B5FFF744
:101F8000D7FF074B1B68012BF9D94FF0E0234FF027
:101F90008052C3F8042DBFF34F8FBFF36F8FEEE76E
:101FA0006043002070B504460D461D4B1E681D4B56
:101FB00018680430FFF7FAFB50B91A4B1B68DA6A4D
:101FC000012303FA02F218490B6823EA02030B60AB
:101FD000B4F1FF3F0DD03444124B1B685C60A64245
:101FE00010D9124B18680F4B19680431FFF7C5FB65
:101FF00070BD002DEFD00B4B196804310C48FFF772
:10200000B1FBF5E70B4B1868064B19680431FFF775
:10201000B4FB094B1B68A342EAD9074B1C60E7E7F6
:102020007844002054430020004400205C430020FA
:1020300050440020584300203044002030B587B081
:102040000B9C7CB10C9DB5B154250495049D542D79
:102050001AD04FF0500383F31188BFF36F8FBFF393
:102060004F8FFEE74FF0500383F31188BFF36F8F5C
:10207000BFF34F8FFEE74FF0500383F31188BFF398
:102080006F8FBFF34F8FFEE7049D0C9D2C630224DE
:1020900085F8514000240394029505AC01940A9CF4
:1020A0000094FFF74FFE0C98FFF7D2FE059807B09B
:1020B00030BD2DE9F04385B00746884614461E46DC
:1020C0009000FFF779FD00B381465420FFF774FDBF
:1020D0000546B0B1C0F83090E5B1002385F8513025
:1020E000039302950D9B01930C9B0093334622466C
:1020F00041463846FFF726FE2846FFF7A9FE012095
:1021000005E04846FFF7D0FDE6E74FF0FF3005B0A9
:10211000BDE8F0834FF0FF30F9E7000010B588B05C
:1021200000240594069407AA06A905A8FEF70CF951
:10213000059B0293069B019300942346079A0E4940
:102140000E48FFF77BFF0E4B186090B14FF0500325
:1021500083F31188BFF36F8FBFF34F8F094B4FF09D
:10216000FF321A60084B01221A60084B1C60FFF70F
:1021700033FC08B010BD00BFF05B00087D1F0008F5
:102180002C440020304400204C440020784400209F
:10219000024A136801331360704700BFF843002000
:1021A000F8B53A4B1B68002B64D1394B1D680135DB
:1021B0001D60C5B9374B1B681B6843B14FF0500316
:1021C00083F31188BFF36F8FBFF34F8FFEE7314A60
:1021D0001168314B186810601960304A1368013378
:1021E0001360FFF799FD2E4B1B68AB4238D90027CF
:1021F0002C4B1B68DB6A03EB83039A002A4B9B582A
:10220000012B3CD901273AE00127224B1B681B68B0
:1022100043B3204B1B68DB68DC6863689D4226D3B0
:10222000261D3046FFF7C2FAA36A1BB104F118005D
:10223000FFF7BCFAE36A01229A401C49086802438E
:102240000A6003EB83039A00314617481044FFF7F6
:1022500089FAE26A134B1B68DB6A9A42D4D2D4E74C
:102260000027D2E70E4B4FF0FF321A60C0E70C4A4E
:102270001360BDE70E4A13680133136000270D4B4E
:102280001B6803B101273846F8BD00BFF8430020A2
:1022900078440020584300205C4300203444002050
:1022A00030440020544300206043002000440020BC
:1022B000F44300207C44002038B5354B1B6843B9FB
:1022C0004FF0500383F31188BFF36F8FBFF34F8F2D
:1022D000FEE7FFF7E7FA2E4B1A68013A1A601B680F
:1022E000002B4FD12B4B1B680BB900244BE0002473
:1022F000294B1B681BB3284BDB68DC6804F1180012
:10230000FFF754FA251D2846FFF750FAE06A01232B
:102310008340224A11680B43136000EB800029467A
:102320001F4B03EB8000FFF71DFAE26A1D4B1B6891
:10233000DB6A9A42DCD31C4B01221A60D8E70CB14D
:10234000FFF7EAFC194B1C6884B9174B1C68D4B121
:102350004FF0E0234FF08052C3F8042DBFF34F8FAE
:10236000BFF36F8F01240EE0013C07D0FFF718FF89
:102370000028F9D00C4B01221A60F5E70B4B002224
:102380001A60E2E70024FFF7AFFA204638BD00BF2D
:10239000F8430020EC430020384400200044002093
:1023A00060430020544300207C440020F44300207C
:1023B00010B5A8B10446104B1B6843B14FF0500351
:1023C00083F31188BFF36F8FBFF34F8FFEE7FFF7E3
:1023D000DFFE00212046FFF7E5FDFFF76DFF48B95E
:1023E0004FF0E0234FF08052C3F8042DBFF34F8F1E
:1023F000BFF36F8F10BD00BFF8430020204B1B6858
:102400001BB1204B01221A6070471E4B00221A603C
:102410001D4B1B68B3FA83F3DBB2C3F11F0303EB5D
:1024200083018A0019498A5842B94FF0500383F357
:102430001188BFF36F8FBFF34F8FFEE7134903EB94
:10244000830082000A4450684068506003EB830CAC
:102450004FEA8C0208321144884209D003EB83030F
:102460009A000A4B13445B68DA68094B1A6070479C
:10247000406862469100054A0A445060EEE700BF9A
:10248000F84300207C4400200044002060430020EA
:10249000544300202DE9F0471546D0F8F0404FEAAC
:1024A000540A0F684E688A68CB684FEA172E0EF000
:1024B000FF1E390201F0FF214EEA010E4FEA162CF1
:1024C0000CF0FF1C310201F0FF214CEA010C110A53
:1024D00001F0FF11120202F0FF220A431F0A07F067
:1024E000FF171B0203F0FF233B43016881EA3E4EC6
:1024F000416881EA3C4C816881EA3241C76887EAD9
:102500003347002203E00833FF2BFCDD0132032AAE
:1025100001DC0023F8E74FEA1E62F24B53F8226019
:10252000CCF3074202F5807253F822205640C1F3E3
:10253000072202F5007253F822205640FAB202F543
:10254000407253F822205640026956404FEA1C62FE
:1025500053F82220C1F3074808F5807853F8288003
:1025600082EA0808C7F3072202F5007253F8222016
:1025700088EA02085FFA8EF202F5407253F82220D0
:1025800088EA0208426988EA02080A0E53F8222003
:10259000C7F3074909F5807953F8299082EA0902BF
:1025A000CEF3072909F5007953F8299082EA090248
:1025B0005FFA8CF909F5407953F8299082EA090904
:1025C000826989EA02023F0E53F82790CEF307474B
:1025D00007F5807753F8277089EA070ECCF30727B1
:1025E00007F5007753F827708EEA070CC9B201F59A
:1025F000407153F821108CEA010CC1698CEA010C7E
:10260000310E53F82110C8F3074707F5807753F8C8
:10261000277081EA070EC2F3072101F5007153F814
:1026200021108EEA010E5FFA8CF101F5407153F82A
:1026300021108EEA010E016A8EEA010E4FEA18613E
:1026400053F82110C2F3074707F5807753F8277036
:102650007940CCF3072707F5007753F827707940C6
:10266000F7B207F5407753F827704F40416A794039
:10267000170E53F82770CCF3074909F5807953F802
:10268000299087EA0907C6F3072909F5007953F865
:10269000299087EA09075FFA88F909F5407953F824
:1026A000299087EA0909876A89EA07074FEA1C6CBB
:1026B00053F82C90C6F3074606F5807653F826604B
:1026C00089EA0609C8F3072606F5007653F826605E
:1026D00089EA0609D2B202F5407253F8222089EA4B
:1026E0000209C26A89EA02094FEA1E6253F82220EF
:1026F000C1F3074606F5807653F8266082EA060C99
:10270000C7F3072202F5007253F822208CEA020C6C
:102710005FFA89F202F5407253F822208CEA020C2B
:10272000026B8CEA020C0A0E53F82220C7F307460C
:1027300006F5807653F826607240C9F3072606F541
:10274000007653F8266072405FFA8EF606F5407602
:1027500053F826605640426B72403E0E53F8266096
:10276000C9F3074808F5807853F8288086EA0808F6
:10277000CEF3072606F5007653F8266088EA0608A9
:10278000CEB206F5407653F8266088EA0608866BD6
:1027900088EA06084FEA196953F82990CEF30746EC
:1027A00006F5807653F8266089EA0609C1F3072109
:1027B00001F5007153F8211089EA0109FFB207F50C
:1027C000407153F8211089EA0109C16B89EA0109B6
:1027D0004FEA1C6153F82110C2F3074606F58076D4
:1027E00053F8266081EA060EC8F3072101F500714F
:1027F00053F821108EEA010E5FFA89F101F540715C
:1028000053F821108EEA010E016C8EEA010E110EB2
:1028100053F82110C8F3074606F5807653F8266072
:102820007140C9F3072606F5007653F8266071401B
:102830005FFA8CF606F5407653F826604E40416C00
:1028400071404FEA186653F82670C9F3074606F53B
:10285000807653F826607740CCF3072606F500769D
:1028600053F826607740D6B206F5407653F82660D6
:102870007740866C77404FEA196953F82990CCF37A
:10288000074606F5807653F8266089EA0609C2F302
:10289000072202F5007253F8222089EA02095FFA42
:1028A00088F202F5407253F8222089EA0209C26CCC
:1028B00089EA02094FEA1E6253F82220C1F3074653
:1028C00006F5807653F8266082EA060CC7F30722E5
:1028D00002F5007253F822208CEA020C5FFA89F2AA
:1028E00002E000BFF86C000802F5407253F82220A5
:1028F0008CEA020C026D8CEA020C0A0E53F82220BC
:10290000C7F3074606F5807653F826607240C9F390
:10291000072606F5007653F8266072405FFA8EF6B9
:1029200006F5407653F826605640426D72403E0EE2
:1029300053F82660C9F3074808F5807853F82880D3
:1029400086EA0808CEF3072606F5007653F82660D7
:1029500088EA0608CEB206F5407653F8266088EA83
:102960000608866D88EA06084FEA196953F8299027
:10297000CEF3074606F5807653F8266089EA060905
:10298000C1F3072101F5007153F8211089EA01090B
:10299000F9B201F5407153F8211089EA0109C16DBE
:1029A00089EA01094FEA1C6153F82160C2F307412B
:1029B00001F5807153F821104E40C8F3072101F54D
:1029C000007153F821104E405FFA89F101F5407112
:1029D00053F821104E40016E4E40110E53F8211055
:1029E000C8F3074707F5807753F8277081EA070E89
:1029F000C9F3072101F5007153F821108EEA010E89
:102A00005FFA8CF101F5407153F821108EEA010E46
:102A1000416E8EEA010E4FEA186153F82170C9F336
:102A2000074101F5807153F821104F40CCF3072185
:102A300001F5007153F821104F40D1B201F54071FA
:102A400053F821104F40816E4F404FEA196953F8F7
:102A50002990CCF3074101F5807153F8211089EAE0
:102A60000109C2F3072202F5007253F8222089EA15
:102A700002095FFA88F202F5407253F8222089EACF
:102A80000209C26E89EA0209320E53F82220CEF3FF
:102A9000074101F5807153F8211082EA010CC7F358
:102AA000072202F5007253F822208CEA020C5FFA2A
:102AB00089F202F5407253F822208CEA020C026F70
:102AC0008CEA020C4FEA1E6253F82210C7F3074249
:102AD00002F5807253F822205140C9F3072202F513
:102AE000007253F822205140F2B202F5407253F8BE
:102AF00022205140426F51403A0E53F82220C9F330
:102B0000074808F5807853F8288082EA0808C6F359
:102B1000072202F5007253F8222088EA02085FFAC1
:102B20008EF202F5407253F8222088EA0208826F82
:102B300088EA02084FEA196953F82990C6F3074258
:102B400002F5807253F8226089EA0606CEF3072266
:102B500002F5007253F822205640FAB202F5407294
:102B600053F822707740C26F57404FEA1C6253F807
:102B70002220C1F3074606F5807653F8266072409E
:102B8000C8F3072606F5007653F826607240FEB2B9
:102B900006F5407653F826605640D0F88020724003
:102BA0000E0E53F82660C8F3074E0EF5807E53F8DC
:102BB0002EE086EA0E0EC7F3072606F5007653F8D8
:102BC00026608EEA060E5FFA8CF606F5407653F81C
:102BD00026608EEA060ED0F884608EEA060E4FEA72
:102BE000186653F82660C7F3074909F5807953F84A
:102BF000299086EA0906CCF3072909F5007953F8EC
:102C0000299086EA09065FFA81F909F5407953F8B7
:102C1000299086EA0906D0F8884066403F0E53F8AE
:102C20002790CCF3074707F5807753F8277089EA98
:102C30000707C1F3072101F5007153F821104F4038
:102C40005FFA88F101F5407153F8211087EA010815
:102C5000D0F88C1088EA0108110E53F82110CEF339
:102C6000074707F5807753F8277081EA070CC6F30A
:102C7000072101F5007153F821108CEA010C5FFA6D
:102C800088F101F5407153F821108CEA010CD0F85D
:102C900090108CEA010C4FEA1E6153F82170C6F3C4
:102CA000074101F5807153F821104F40C8F3072107
:102CB00001F5007153F821104F40D1B201F5407178
:102CC00053F821104F40D0F894104F40310E53F874
:102CD0002110C8F3074909F5807953F8299081EA52
:102CE0000901C2F3072909F5007953F8299081EA0F
:102CF00009015FFA8EF909F5407953F8299081EAC4
:102D00000909D0F8981089EA01014FEA186853F8C8
:102D10002880C2F3074202F5807253F8222088EA25
:102D20000208CEF3072202F5007253F8222088EA47
:102D3000020EF2B202F5407253F822308EEA03031B
:102D4000D0F89C205340BAF1050F40F2E7814FEADA
:102D50001C62F94E56F82220C7F3074E0EF5807E0E
:102D600056F82EE082EA0E0EC1F3072202F5007239
:102D700056F822208EEA020EDAB202F5407256F8B8
:102D800022208EEA020ED0F8A0208EEA020E3A0E21
:102D900056F82220C1F3074808F5807856F82880B5
:102DA00082EA0808C3F3072202F5007256F82220CF
:102DB00088EA02085FFA8CF202F5407256F8222087
:102DC00088EA0208D0F8A42088EA02080A0E56F819
:102DD0002220C3F3074909F5807956F8299082EA41
:102DE0000902CCF3072909F5007956F8299082EAFF
:102DF00009025FFA87F909F5407956F8299082EAC5
:102E00000909D0F8A82089EA02021B0E56F82330DF
:102E1000CCF3074C0CF5807C56F82C9083EA09091A
:102E2000C7F3072303F5007356F8233089EA030933
:102E3000CBB203F5407356F8233089EA0309D0F882
:102E4000AC3089EA03094FEA1E6356F82330C8F311
:102E5000074101F5807156F8211083EA010CC2F395
:102E6000072303F5007356F823308CEA030C5FFA4E
:102E700089F303F5407356F823308CEA030CD0F83D
:102E8000B0308CEA030C4FEA186356F82310C2F3F3
:102E9000074303F5807356F823305940C9F30723DD
:102EA00003F5007356F8233059405FFA8EF303F5AB
:102EB000407356F823707940D0F8B43081EA0307A4
:102EC000130E56F82310C9F3074303F5807356F821
:102ED00023305940CEF3072303F5007356F823300F
:102EE00059405FFA88F303F5407356F82330594090
:102EF000D0F8B83059404FEA196956F82990CEF306
:102F0000074303F5807356F8233089EA030EC8F3AC
:102F1000072303F5007356F823308EEA030ED2B26E
:102F200002F5407356F823308EEA0303D0F8BC2034
:102F30005340BAF1060F40F2F1804FEA1C6256F896
:102F400022E0C7F3074202F5807256F822208EEA8B
:102F5000020EC1F3072202F5007256F822208EEA13
:102F6000020EDAB202F5407256F822208EEA020E04
:102F7000D0F8C0208EEA020E3A0E56F82280C1F335
:102F8000074202F5807256F8222088EA0208C3F34D
:102F9000072202F5007256F8222088EA02085FFA3A
:102FA0008CF202F5407256F8222088EA0208D0F826
:102FB000C42088EA02080A0E56F82220C3F3074903
:102FC00009F5807956F8299082EA0902CCF307299D
:102FD00009F5007956F8299082EA09025FFA87F923
:102FE00009F5407956F8299082EA0909D0F8C820F5
:102FF00089EA02021B0E56F82390CCF3074303F52F
:10300000807356F8233089EA0309C7F3072303F5D1
:10301000007356F8233089EA0309CBB203F54073F5
:1030200056F8233089EA0309D0F8CC3089EA03093D
:103030004FEA1E6356F823C0C8F3074303F58073B5
:1030400056F823308CEA030CC2F3072303F5007310
:1030500056F823308CEA030C5FFA89F303F54073CA
:1030600056F823308CEA030CD0F8D0308CEA030CED
:103070004FEA186356F82310C2F3074303F5807331
:1030800056F823305940C9F3072303F5007356F867
:10309000233059405FFA8EF303F5407356F82370DE
:1030A0007940D0F8D43081EA0307130E56F8231084
:1030B000C9F3074303F5807356F823305940CEF324
:1030C000072303F5007356F8233059405FFA88F35D
:1030D00003F5407356F823305940D0F8D8305940A2
:1030E0004FEA196956F82990CEF3074303F5807328
:1030F00056F823E089EA0E0EC8F3072303F50073A0
:1031000056F823308EEA030ED2B202F5407356F819
:1031100023308EEA0303D0F8DC2053404FEA4A12F2
:1031200000EB4A1E4FEA1C66034C06F5007654F885
:10313000266006F07F4601E0F86C0008C7F30748F8
:1031400008F5407854F8288008F47F0846EA080615
:10315000C1F3072854F8288008F47F4886EA080657
:103160005FFA83F808F5807814F8288086EA080664
:10317000825856403A0E02F5007254F8220000F0D0
:103180007F40C1F3074202F5407254F8222002F456
:103190007F021043C3F3072254F8222002F47F4237
:1031A00050405FFA8CF202F5807214F822205040F1
:1031B000DEF8042050400A0E02F5007254F8222076
:1031C00002F07F42C3F3074808F5407854F828809E
:1031D00008F47F0842EA0802CCF3072854F8288054
:1031E00008F47F4882EA08025FFA87F808F58078D9
:1031F00014F8288082EA0808DEF8082088EA02022B
:103200001B0E03F5007354F8233003F07F48CCF312
:10321000074303F5407354F8233003F47F0348EA6F
:103220000303C7F3072754F8277007F47F475F406D
:10323000CBB203F5807314F823307B40DEF80C101A
:103240004B40310A01F0FF14310201F0FF2121430C
:103250004FEA3144010A01F0FF16010201F0FF219B
:1032600031434FEA3140110A01F0FF11120202F01E
:10327000FF2211434FEA31411A0A02F0FF121B02EA
:1032800003F0FF2313434FEA33432C606860A960C7
:10329000EB60BDE8F08700BF2DE9F0471446D0F899
:1032A000F0504FEA550A0F684E688A68CB684FEABB
:1032B000172C0CF0FF1C390201F0FF214CEA01072A
:1032C0004FEA162C0CF0FF1C310201F0FF214CEAF2
:1032D000010C4FEA122E0EF0FF1E120202F0FF2226
:1032E0004EEA0202190A01F0FF111B0203F0FF234C
:1032F0000B43016881EA3741466886EA3C4C8668A0
:1033000086EA324EC76887EA3347002203E0083373
:10331000FF2BFCDD0132032A01DC0023F8E70A0E53
:10332000F24B53F82220C7F3074606F5807653F890
:1033300026607240CEF3072606F5007653F8266025
:1033400072405FFA8CF606F5407653F826605640D8
:10335000026972404FEA1C6653F82660C1F30748C1
:1033600008F5807853F8288086EA0806C7F307280E
:1033700008F5007853F8288086EA08065FFA8EF888
:1033800008F5407853F8288086EA0808466988EAF4
:1033900006064FEA1E6853F82880CCF3074909F562
:1033A000807953F8299088EA0908C1F3072909F5BB
:1033B000007953F8299088EA09085FFA87F909F536
:1033C000407953F8299088EA0908856988EA050850
:1033D0003F0E53F82790CEF3074707F5807753F851
:1033E000277089EA070ECCF3072707F5007753F813
:1033F00027708EEA070CC9B201F5407153F821100D
:103400008CEA010CC1698CEA010C110E53F82110F1
:10341000CCF3074707F5807753F827707940C8F356
:10342000072707F5007753F827707940F7B207F5BB
:10343000407753F827704F40016A7940370E53F8B0
:103440002770C2F3074E0EF5807E53F82EE087EA10
:103450000E0ECCF3072707F5007753F827708EEA96
:10346000070E5FFA88F707F5407753F827708EEA62
:10347000070E476A8EEA070E4FEA186753F827705F
:10348000C6F3074909F5807953F8299087EA0907B7
:10349000C2F3072909F5007953F8299087EA09074B
:1034A0005FFA8CF909F5407953F8299087EA090900
:1034B000876A89EA07074FEA1C6C53F82C90C8F317
:1034C000074C0CF5807C53F82CC089EA0C09C6F334
:1034D000072606F5007653F8266089EA0609D2B277
:1034E00002F5407253F8222089EA0209C26A89EA89
:1034F00002090A0E53F82220C9F3074606F5807622
:1035000053F826607240C7F3072606F5007653F895
:10351000266072405FFA8EF606F5407653F8266014
:103520005640026B72404FEA1E6653F82660C1F3A4
:10353000074C0CF5807C53F82CC086EA0C0CC9F3C0
:10354000072606F5007653F826608CEA060CFEB2D4
:1035500006F5407653F826608CEA060C466B8CEA3A
:10356000060C3E0E53F82660CEF3074808F5807827
:1035700053F8288086EA0808C1F3072606F5007686
:1035800053F8266088EA06085FFA89F606F5407661
:1035900053F8266088EA0608866B88EA06084FEA30
:1035A000196953F82990C7F3074707F5807653F850
:1035B000266089EA0609CEF3072606F5007653F859
:1035C000266089EA0609C9B201F5407153F8211055
:1035D00089EA0109C16B89EA0109110E53F821102A
:1035E000C9F3074606F5807653F826607140C8F3A4
:1035F000072606F5007653F8266071405FFA8CF6D0
:1036000006F5407653F826604E40016C71404FEA53
:103610001C6653F82660C2F3074707F5807753F816
:10362000277086EA070EC9F3072606F5007653F8D9
:1036300026608EEA060E5FFA88F606F5407653F8A5
:1036400026608EEA060E466C8EEA060E4FEA186673
:1036500053F82670CCF3074606F5807653F82660BB
:103660007740C2F3072606F5007653F826607740C8
:103670005FFA89F606F5407653F826607740866C47
:1036800077404FEA196953F82990C8F3074606F5C1
:10369000807653F8266089EA0609CCF3072606F5FA
:1036A000007653F8266089EA0609D2B202F5407224
:1036B00053F8222089EA0209C26C89EA02090A0E3B
:1036C00053F82220C9F3074606F5807653F82660A2
:1036D0007240C7F3072606F5007653F8266072405D
:1036E0005FFA8EF606F5407602E000BFF85B000850
:1036F00053F826605640026D72404FEA1E6653F83A
:103700002660C1F3074C0CF5807C53F82CC086EA88
:103710000C0CC9F3072606F5007653F826608CEAF0
:10372000060CFEB206F5407653F826608CEA060CCD
:10373000466D8CEA060C3E0E53F82660CEF3074821
:1037400008F5807853F8288086EA0808C1F3072630
:1037500006F5007653F8266088EA06085FFA89F6CF
:1037600006F5407653F8266088EA0608866D88EAF2
:1037700006084FEA196953F82990C7F3074606F57A
:10378000807653F8266089EA0609CEF3072606F507
:10379000007653F8266089EA0609C9B201F540713E
:1037A00053F8211089EA0109C16D89EA0109110E56
:1037B00053F82110C9F3074606F5807653F82660C2
:1037C00081EA060EC8F3072101F5007153F82110B4
:1037D0008EEA010E5FFA8CF101F5407153F8211069
:1037E0008EEA010E016E8EEA010E4FEA1C6153F85B
:1037F0002160C2F3074101F5807153F821104E405A
:10380000C9F3072101F5007153F821104E405FFA0A
:1038100088F101F5407153F821104E40416E4E4041
:103820004FEA186153F82170CCF3074101F580711C
:1038300053F821104F40C2F3072101F5007153F8EE
:1038400021104F405FFA89F101F5407153F82110C2
:103850004F40816E4F404FEA196953F82990C8F3E1
:10386000074101F5807153F8211089EA0109CCF371
:10387000072101F5007153F8211089EA0109D2B23C
:1038800002F5407253F8222089EA0209C26E89EAE1
:1038900002094FEA1E6253F82210C9F3074202F5EB
:1038A000807253F822205140C7F3072202F50072BC
:1038B00053F822205140F2B202F5407253F8222010
:1038C0005140026F5140320E53F82220CEF3074C84
:1038D0000CF5807C53F82CC082EA0C0CC9F307224B
:1038E00002F5007253F822208CEA020CFAB202F5BB
:1038F000407253F822208CEA020C426F8CEA020CD0
:103900003A0E53F82220C6F3074808F5807853F89A
:10391000288082EA0808CEF3072202F5007253F8E5
:10392000222088EA02085FFA89F202F5407253F811
:10393000222088EA0208826F88EA02084FEA1969A1
:1039400053F82990C7F3074202F5807253F82270AA
:1039500089EA0707C6F3072202F5007253F82260CE
:103960007E405FFA8EF202F5407253F822205640F4
:10397000C26F56400A0E53F82220C6F3074707F5D8
:10398000807753F8277082EA070EC8F3072202F502
:10399000007253F822208EEA020E5FFA8CF202F5D2
:1039A000407253F822208EEA020ED0F880208EEA70
:1039B000020E4FEA1C6253F82220C1F3074707F5B5
:1039C000807753F827707A40C6F3072707F500770A
:1039D00053F827707A405FFA88F707F5407753F875
:1039E00027705740D0F884207A404FEA186753F880
:1039F0002770CCF3074909F5807953F8299087EAB5
:103A00000907C1F3072909F5007953F8299087EAD6
:103A100009075FFA86F909F5407953F8299087EA92
:103A20000907D0F888506F40360E53F82690C8F337
:103A3000074606F5807653F8266089EA0608CCF337
:103A4000072606F5007653F8266088EA0608C9B20C
:103A500001F5407153F8211088EA0108D0F88C1064
:103A600088EA01084FEA1E6153F82110C8F307469F
:103A700006F5807653F826607140C7F3072606F5F1
:103A8000007653F826607140D6B206F5407653F8BA
:103A900026604E40D0F890107140160E53F8266004
:103AA000CEF3074C0CF5807C53F82CC086EA0C0C46
:103AB000C8F3072606F5007653F826608CEA060C54
:103AC000FEB206F5407653F826608CEA060CD0F874
:103AD00094608CEA060C3E0E53F82660C2F3074948
:103AE00009F5807953F8299086EA0906CEF307296B
:103AF00009F5007953F8299086EA09065FFA88F9F2
:103B000009F5407953F8299086EA0906D0F89850CB
:103B10006E404FEA186853F82880C7F3074707F547
:103B2000807753F8277088EA0707C2F3072202F567
:103B3000007253F8222057405FFA8EF202F540726D
:103B400053F822207A40D0F89C305A40BAF1050F41
:103B500040F2D5810B0EED4F57F82330C2F3074EDC
:103B60000EF5807E57F82EE083EA0E0EC6F307238B
:103B700003F5007357F823308EEA030E5FFA8CF3D7
:103B800003F5407357F823308EEA030ED0F8A030C7
:103B90008EEA030E4FEA1C6357F82330C1F307483F
:103BA00008F5807857F8288083EA0808C2F30723CD
:103BB00003F5007357F8233088EA0308F3B203F5DE
:103BC000407357F8233088EA0308D0F8A43088EA15
:103BD0000308330E57F82330CCF3074909F58079F1
:103BE00057F8299083EA0909C1F3072303F5007305
:103BF00057F8233089EA0309D3B203F5407357F825
:103C0000233089EA0309D0F8A83089EA0309120EA3
:103C100057F82220C6F3074303F5807357F8233083
:103C20005A40CCF3072303F5007357F823305A406A
:103C3000CBB203F5407357F823305A40D0F8AC307C
:103C40005A404FEA1E6357F82310C2F3074303F5A7
:103C5000807357F823305940C9F3072303F50073E5
:103C600057F8233059405FFA88F303F5407357F84B
:103C700023305940D0F8B03059404FEA186357F814
:103C80002330CEF3074606F5807657F8266083EAA0
:103C9000060CC2F3072303F5007357F823308CEAB0
:103CA000030C5FFA89F303F5407357F823308CEA6D
:103CB000030CD0F8B4308CEA030C4FEA196357F8C0
:103CC0002360C8F3074303F5807357F823305E4041
:103CD000CEF3072303F5007357F823305E40D3B2C9
:103CE00003F5407357F823305E40D0F8B8305E409B
:103CF000120E57F82220C9F3074303F5807357F8D3
:103D000023305A40C8F3072303F5007357F82330D4
:103D10005A405FFA8EF303F5407357F823305A4048
:103D2000D0F8BC305A40BAF1060F40F2E8800B0ED2
:103D300057F823E0C2F3074303F5807357F82330A5
:103D40008EEA030EC6F3072303F5007357F82330FA
:103D50008EEA030E5FFA8CF303F5407357F82330B5
:103D60008EEA030ED0F8C0308EEA030E4FEA1C63D1
:103D700057F82380C1F3074303F5807357F82330C6
:103D800088EA0308C2F3072303F5007357F82330CA
:103D900088EA0308F3B203F5407357F8233088EA42
:103DA0000308D0F8C43088EA0308330E57F823908C
:103DB000CCF3074303F5807357F8233089EA0309EE
:103DC000C1F3072303F5007357F8233089EA030989
:103DD000D3B203F5407357F8233089EA0309D0F8CA
:103DE000C83089EA0309120E57F82220C6F30743A8
:103DF00003F5807357F823305A40CCF3072303F5BB
:103E0000007357F823305A40CBB203F5407357F88C
:103E100023305A40D0F8CC305A404FEA1E6357F84E
:103E20002310C2F3074303F5807357F8233059403A
:103E3000C9F3072303F5007357F8233059405FFA9D
:103E400088F303F5407357F823305940D0F8D03049
:103E500059404FEA186357F823C0CEF3074303F5E0
:103E6000807357F823308CEA030CC2F3072303F561
:103E7000007357F823308CEA030C5FFA89F303F5DB
:103E8000407357F823308CEA030CD0F8D4308CEA16
:103E9000030C4FEA196357F82360C8F3074303F58F
:103EA000807357F823305E40CEF3072303F5007389
:103EB00057F823305E40D3B203F5407357F82330F0
:103EC0005E40D0F8D8305E40120E57F82220C9F379
:103ED000074303F5807357F823305A40C8F307238C
:103EE00003F5007357F823305A405FFA8EF303F559
:103EF000407357F823305A40D0F8DC305A404FEA2C
:103F00004A1800EB4A15002303E000BFF85B0008E5
:103F10002033FF2BFCDD0B0EDFF814E11EF803301D
:103F2000C2F307471EF807703F0447EA0367C6F36A
:103F300007231EF8033047EA03275FFA8CF31EF8C5
:103F400003305F4050F808305F404FEA1C631EF8B2
:103F50000330C1F307401EF80000000440EA03608C
:103F6000C2F307231EF8033040EA0320F3B21EF821
:103F7000033058406B685840330E1EF80330CCF3C2
:103F800007481EF808804FEA084848EA0368C1F36A
:103F900007231EF8033048EA0328D3B21EF8033083
:103FA00088EA0308AB6888EA0308120E1EF80220AC
:103FB000C6F307461EF806301B0443EA0263CCF33F
:103FC000072C1EF80C2043EA0223C9B21EF8012078
:103FD0005340EA6853403A0A02F0FF153A0202F0F1
:103FE000FF222A434FEA3245020A02F0FF11020281
:103FF00002F0FF220A434FEA32404FEA182101F053
:10400000FF114FEA082202F0FF2211434FEA31412B
:104010001A0A02F0FF121B0203F0FF2313434FEAB8
:10402000334325606060A160E360BDE8F08700BFB6
:10403000F86B0008E8B1034689B100B5D1F800E09B
:10404000D1F804C08868CA68C3F8F8E0C3F8FCC0B7
:10405000C3F80001C3F8042100205DF804FB002030
:10406000C3F8F800C3F8FC00C3F80001C3F804016A
:1040700070476FF0AC007047F0B583B00646154648
:104080001F46099B4BB1102A04D0182A02D0202ABF
:1040900040F02082202D00F22082C6F8F450AB08B8
:1040A0000633C6F8F030F02D00F21A8234462A4664
:1040B0003046FCF775F8A80800220DE054F82230CD
:1040C000190A01F0FF111B0203F0FF2319434FEA05
:1040D000314144F8221001329042EFD8182D3ED0E1
:1040E000202D7ED0102D02D06FF0AC00F2E03146D2
:1040F0000020CD6801950A68DFF868C2C5F3074360
:1041000003F500735CF8233003F07F435340C5F39D
:10411000072202F540725CF8222002F47F0253402D
:10412000EAB25CF8222002F47F4253402A0E02F5E4
:1041300080721CF822205340894A52F820205340B4
:104140000B614A6853404B618A6853408B616B40F6
:10415000CB6101300A2800F0BF801031C9E7324638
:104160000020516901917F4DC1F3074C0CF5007C93
:1041700055F82C3003F07F4C136883EA0C03C1F32D
:10418000072C0CF5407C55F82CC00CF47F0C83EA0E
:104190000C035FFA81FC55F82CC00CF47F4C83EAC9
:1041A0000C034FEA116C0CF5807C15F82C506B4019
:1041B0006B4D55F820506B40936155686B40D3614F
:1041C00095686B401362D5686B40536201300828D4
:1041D00000F0828015696B4093624B40D3621832C5
:1041E000BFE732460020D16901915E4DC1F3074C13
:1041F0000CF5007C55F82C3003F07F4C136883EAF3
:104200000C03C1F3072C0CF5407C55F82CC00CF4C2
:104210007F0C83EA0C035FFA81FC55F82CC00CF488
:104220007F4C83EA0C034FEA116C0CF5807C15F887
:104230002C506B404A4D55F820506B401362556826
:104240006B40536295686B409362D5686B40D36254
:104250000130072840D001934FEA136EDFF804C104
:104260000EF5007E5CF82E5005F07F4E156985EA4C
:104270000E05C3F3074E0EF5407E5CF82EE00EF4FB
:104280007F0E85EA0E05C3F3072E5CF82EE00EF4D0
:104290007F4E85EA0E05DBB203F580731CF82330F0
:1042A0006B40136355696B40536395696B4093632F
:1042B0004B40D363203296E7002203F8012B0A46D5
:1042C000511E002AF8D1089B012B08D039463046F0
:1042D000FFF7B0FE03B0F0BD01AB0422F0E7D6F863
:1042E000F0309B002EE054F82210019154F8230086
:1042F00044F8220044F8231002F1010C54F82C0079
:104300000190591C54F8215044F82C5044F82100D5
:1043100002F1020C54F82C000190991C54F8215021
:1043200044F82C5044F8210002F1030C54F82C00FE
:104330000190D91C54F8215044F82C5044F8210025
:104340000432043B9A42CED301AB042203E00022A4
:1043500003F8012B0A46511E002AF8D10120B3E0D0
:10436000F87C0008F86C000854F8103F1A0E5E49FB
:1043700002F5807211F822505C4A52F82550C3F3BE
:10438000074C0CF5807C11F82CC00CF5807C52F8A1
:104390002CC085EA0C05C3F3072C0CF5807C11F8C2
:1043A0002CC00CF5007C52F82CC085EA0C05DBB261
:1043B00003F5807311F8233003F5407352F823306E
:1043C0006B40236063681D0E05F5807511F825505C
:1043D00052F82550C3F3074C0CF5807C11F82CC023
:1043E0000CF5807C52F82CC085EA0C05C3F3072C31
:1043F0000CF5807C11F82CC00CF5007C52F82CC018
:1044000085EA0C05DBB203F5807311F8233003F560
:10441000407352F823306B406360A3681D0E05F5AE
:10442000807511F8255052F82550C3F3074C0CF550
:10443000807C11F82CC00CF5807C52F82CC085EAE9
:104440000C05C3F3072C0CF5807C11F82CC00CF57F
:10445000007C52F82CC085EA0C05DBB203F58073B2
:1044600011F8233003F5407352F823306B40A360FA
:10447000E3681D0E05F5807511F8255052F825509A
:10448000C3F3074C0CF5807C11F82CC00CF5807C34
:1044900052F82CC085EA0C05C3F3072C0CF5807C80
:1044A00011F82CC00CF5007C52F82CC085EA0C05E4
:1044B000DBB203F5807311F8233003F5407352F833
:1044C00023306B40E3600130D6F8F03083423FF692
:1044D0004BAFFBE66FF0AC00FCE66FF0AC00F9E62A
:1044E0006FF0AC00F6E600BFF86C0008F85B00085F
:1044F00070B18446F02A0ED800B583B00120019037
:10450000049800906046FFF7B7FD03B05DF804FB28
:104510006FF0AC0070476FF0AC007047E0B32DE96E
:10452000F0410E4615461A090746C1B3D5B3E3B9A3
:1045300000202FE055F8231054F823204A4044F877
:1045400023200133032BF5D9224621463846FDF7B7
:10455000A1FFD7F8F8006168A268E3683060716075
:10456000B260F36010361035424602F1FF3882B176
:1045700007F1F80444EA050313F00303E2D0002333
:1045800004E0EA5CE15C4A40E25401330F2BF8D9C5
:10459000DAE70020BDE8F0816FF0AC0070476FF003
:1045A000AC00F7E76FF0AC00F4E7002850D02DE93D
:1045B000F8430C461646054600294CD0002A4DD03B
:1045C00013F00F094DD1002B4ED01B0916E051F806
:1045D000230054F82320424044F823200133032BC6
:1045E000F5D9D5F808C17868BA68FB68C5F8F8C08D
:1045F00048608A60CB6010341036434603F1FF38C0
:104600001BB305F5847730687168B268F368C5F844
:104610000801C5F80C11C5F81021C5F8143122465F
:1046200039462846FEF738FE05F1F80144EA010351
:1046300013F00303D3D04B4604E0CA5CE05C424075
:10464000E25401330F2BF8D9CBE70020BDE8F88303
:104650006FF0AC0070476FF0AC00F7E76FF0AC00A4
:10466000F4E76FF0AC00F1E70020EFE702467823B3
:1046700005E01346002203F8012B1A460B46591E8B
:10468000002BF6D1002202E0C15C0A430133772BF4
:10469000FAD9101E18BF012070472DE9F04FA9B0BC
:1046A0000D461746DDF8CCB0DDF8D090DDF8D4A08B
:1046B0008DF80730D30026931B0A03F0FF13D202B4
:1046C00002F0FF2213434FEA334326934FEA571871
:1046D00017F01F0300D00123984401208DF89F009C
:1046E0000026044633E0042226A90AA800F03DFE75
:1046F00004463CE001220DF107010AA800F035FE56
:10470000044639E05A4632990AA800F02EFE0446C3
:1047100034E0002C41D00AA800F06BFF8CB9202FA8
:1047200041D90DF1080CBCE80F0028606960AA604F
:10473000EB60BCE80F0028616961AA61EB61203F72
:10474000203501369DF89F3001338DF89F30464566
:104750002FDA0AA800F046FF044650BB01220DF1F3
:104760009F010AA800F001FE04460028BBD01CB936
:104770009DF80730042BBDD1002CC3D0002CC8D12C
:10478000B9F1000FC5D0BAF1000FC2D05246494668
:104790000AA800F0EAFD0446BBE702A90AA800F057
:1047A00092FE0446B7E73A4602A92846FBF7F8FC12
:1047B000C7E702AB2022511E22B1002203F8012BD1
:1047C0000A46F8E7201E18BF012029B0BDE8F08F87
:1047D0002DE9F04192B004460F4690463726324606
:1047E000002104A800F070FF04F10805CDF80C804A
:1047F0000297019600950123324604A92046FFF74F
:104800004CFF00283DD104AEAC4610AFB646BEE822
:104810000F00CCF80000CCF80410CCF80820CCF83D
:104820000C3076460CF1100CBE45EFD1DEF80000DE
:10483000CCF80000BEF804209EF80630ACF8042046
:104840008CF8063004AB372203E0002203F8012B7A
:104850000A46511E002AF8D10023039302933722FF
:104860000192009504F13F012046FFF716FF50B971
:10487000012323600023636084F8763012B0BDE822
:10488000F0810120FAE70120F8E72DE9F04184B03A
:1048900004460D4616461F467822002100F014FFFC
:1048A00004F108080A9B03930297019600950423DC
:1048B000372241462046FFF7F0FE18B1012004B030
:1048C000BDE8F08100230393029337220192CDF8D3
:1048D000008004F13F012046FFF7DFFE30B90123DD
:1048E00023600023636084F87630E8E70120E6E780
:1048F0002DE9F043B3B005460F4690460AB94FF094
:1049000001084FEA581918F01F0200D00122914403
:104910001C460DF1900C03F1300E6646206861686C
:10492000A268E3680FC61034B4467445F5D1206818
:104930003060A288A379B280B3710026012437E0E9
:10494000372224A908A800F010FD044638E0694683
:1049500008A800F0B8FD044634E095F87630012B45
:104960005ED009F1FF33B34203D0012385F87630DE
:1049700037E009F10109F8E7EC46BCE80F003860C0
:104980007960BA60FB60BCE80F0038617961BA6198
:10499000FB61A8F1200820373622002A07DB24A972
:1049A0008B5C0133DBB28B540BB9013AF5E701366E
:1049B0004E4526DA08A800F015FE04460028BFD0B0
:1049C000002CC4D008A800F014FED4B9009B2A68BB
:1049D000012A02D96A689A42BFD0002285F876205F
:1049E0006B60002FE3D0B8F1000FE0D0B8F11F0FDB
:1049F000C2D8424669463846FBF7D2FB4FF0000862
:104A0000D5E724AB3722511E22B1002203F8012B37
:104A10000A46F8E7201E18BF012033B0BDE8F08336
:104A20000320FAE770B5A6B006460068544B9842DA
:104A300000F0A38003238DF82730344654F8083B58
:104A4000089323463046FFF753FF054610B16B46E7
:104A500020228AE00AA800F0C5FD054648B185B1CC
:104A6000B5B10AA800F0C5FD8DB3336801333360DA
:104A7000EDE701220DF127010AA800F076FC0546BA
:104A8000EDE7372221460AA800F06FFC0546E7E76C
:104A900069460AA800F017FD0546E2E7A05C0DF1A3
:104AA000980C8C441CF898CC60440344A354C3F382
:104AB0000F23013A01390029F0DA63B1002A0ADB39
:104AC000A15C0B44A354C3F30723013AF5E7362254
:104AD0001F210023EFE706F13F0E36221146002387
:104AE00009E0A05C1EF801C060440344A354C3F372
:104AF0000F23013A01390029F3DA05E0A15C0B44E8
:104B0000A354C3F30723013A0BB1002AF6DA089A3B
:104B1000130A03F0FF13120202F0FF2213434FEABD
:104B2000334308933622032100230CE0A05C0DF1EF
:104B3000980C8C441CF878CC60440344A354C3F311
:104B40000F23013A01390029F0DA05E0A15C0B449A
:104B5000A354C3F30723013A002B86D0002AF5DAC9
:104B600083E7002203F8012B0A46511E002AF8D1E0
:104B7000281E18BF012026B070BD0220FBE700BF31
:104B800040420F002DE9F04184460F46A1F1040890
:104B90004446042C28BF04240025284613E00CEBCF
:104BA0000502D25C0CEB060E1EF803E082EA0E0250
:104BB000114301339C42F2DC01B9032004357C1B14
:104BC000042C28BF0424A84503D92E1900210B4624
:104BD000F0E7BDE8F0812DE9F04784B0DDF83C80D6
:104BE000DDF84090002B4AD005460E4617469A46FF
:104BF000B8F1000F46D010B10D9B002B45D0B9F194
:104C0000800F45D17820FCF7D7FF0446002842D01A
:104C1000129B0293119B0193009733460C9A5146C5
:104C2000FFF733FEC8B92DB10E9A0D992046FFF754
:104C3000CFFD08BB4A4641462046FFF7F3FE10B1C0
:104C40004FF0FF350BE04A4641462046FFF7EAFEAB
:104C5000054620B14FF0FF3501E04FF0FF3520460B
:104C6000FFF704FD08B14FF0FF352046FDF71CF8B3
:104C7000284604B0BDE8F0874FF0FF35EFE76FF04E
:104C8000AC05F5E76FF0AC05F2E76FF0AC05EFE7C8
:104C90004FF0FF35ECE76FF07C05E9E710B588B021
:104CA0008C466FF001010691002105910C9C049443
:104CB0000B9C03940A9C02940193009263460A465B
:104CC000FFF789FF08B010BD30B589B005468020D8
:104CD000FCF772FF002865D00446DDB18023029303
:104CE000019020230093314B302231490120FFF7FE
:104CF000D5FF0546D8B90146034605E0E25C2D48DC
:104D0000C05C4240114301337F2BF7DD79B14FF096
:104D1000FF350CE0802302930190002000900346B1
:104D200030222549FFF7BAFF054698B1ADB12046BC
:104D3000FCF7BAFF284609B030BDE25C1F48C05CF2
:104D40004240114301337F2BF7DD0029EED04FF0B5
:104D5000FF35ECE701460346F5E7174B6FF001021C
:104D60000692002005908022049203940290019004
:104D700020220092102203F12001FFF72CFF0546AC
:104D80000028D4D10146034605E0E25C0B48C05C34
:104D90004240114301337F2BF7DD0029C7D04FF08C
:104DA000FF35C4E76FF07C05C4E700BF207E000834
:104DB000407E0008207D0008707E0008A07D00086D
:104DC000002301E0CB5401339342FBD30020704712
:104DD0002DE9F04192B0002864D088461646054679
:104DE000A1B16B600023AB602B73A6B1242400201B
:104DF000FFF76AFF88B10327032F49D0012F4CD05A
:104E000002232B73384612B0BDE8F081002AE8D0A7
:104E10006FF0AC07F6E73424E9E77820FCF7CCFE26
:104E2000A86078B1224605A92846FFF7C9FF78B1E6
:104E300002232B7301274FB1A868FCF735FF00232D
:104E4000AB6003E002232B736FF07C0705AB17E028
:104E5000214605A8FFF796FE07460028EBD1189BD0
:104E600002936B68019300964346221F06A9A86827
:104E7000FFF70BFD0746DEE7002103F8011B144690
:104E8000621E002CF8D1002FB6D101232B73B9E795
:104E900003232B736FF0D007B4E702232B736FF05B
:104EA000C607AFE76FF0AC07ACE700B583B06FF0B3
:104EB0000103009300231A461946FFF789FF03B048
:104EC0005DF804FB00284CD070B58AB00E4614463D
:104ED0000546002948D0002A49D0B2F5803F49D87C
:104EE000037B012B49D18068FFF79CFD022808D085
:104EF00000283DD003282FD002232B736FF0C6006B
:104F000036E00120FFF7E0FE08B10320F2E724229B
:104F100001A92846FFF754FF20B1012070B101AB71
:104F2000242215E0242101A8FFF72CFE0028F5D14A
:104F3000202202A9A868FFF74BFCEFE72246314682
:104F4000A868FFF76FFDEAE7002203F8012B0A4685
:104F5000511E002AF8D1CBE703232B736FF0D0004A
:104F600006E06FF0AC0070476FF0AC0000E000208E
:104F70000AB070BD6FF0AC00FAE76FF0C600F7E75B
:104F8000F8B110B504462022002100F09DFB0E4B25
:104F900023600E4B63600E4BA3600E4BE3600E4B21
:104FA00023610E4B63610E4BA36103F17453A3F5B0
:104FB0002303A3F69243E361002020666066A066A7
:104FC00010BD6FF0AC00704767E6096A85AE67BB3D
:104FD00072F36E3C3AF54FA57F520E518C68059BDB
:104FE000ABD9831F2DE9F04F8BB0054601900C46DD
:104FF0004FF48070FCF7E0FD002800F0A781034625
:10500000002207E055F822000AA901EB820141F8CD
:10501000200C0132072AF5DD002204E054F82210AA
:1050200043F8221001320F2AF8DD102420E004F1A9
:1050300080418A1E53F822004FEAF04282EA704211
:1050400082EA9022C81F53F820000244A1F10F0009
:1050500053F820504FEAB54080EAF51080EAD500B9
:105060000244103953F821100A4443F82420013433
:105070003F2CDCDD4FF000084DE1069F4FEAF720A2
:1050800080EAB71080EA7760099A1044089D079C6F
:1050900085EA04023A406A401044DFF8B8C25CF87E
:1050A0002820104453F828201044029E4FEA763AF4
:1050B0008AEAB60A8AEAB65ADDF80C9046EA09028C
:1050C00004990A4006EA090E42EA0E029244059A41
:1050D00000EB020ECDF814E0504409904FEAFE2296
:1050E00082EABE1282EA7E62154487EA04020EEA70
:1050F00002026240154408F1010A5CF82A201544B6
:1051000053F82A2015444FEA703282EAB00282EA4C
:10511000B05246EA000A09EA0A0A06EA000B4AEA1D
:105120000B0A524429440491154408954FEAF12290
:1051300082EAB11282EA7162144487EA0E020A40DE
:105140007A40144408F1020A5CF82A20144453F807
:105150002A2014444FEA753282EAB50282EAB55237
:1051600040EA050A06EA0A0A00EA050B4AEA0B0ABF
:105170005244A144CDF80C90144407944FEAF9220C
:1051800082EAB91282EA796217448EEA010209EAD8
:1051900002028EEA0202174408F1030A5CF82A2090
:1051A000174453F82A2017444FEA743282EAB402B3
:1051B00082EAB45245EA040A00EA0A0A05EA040B44
:1051C0004AEA0B0A52443E440296174406974FEAB5
:1051D000F62282EAB61282EA7662964481EA0902EF
:1051E00032404A40964408F1040A5CF82A2072448E
:1051F00053F82AE072444FEA773E8EEAB70E8EEA01
:10520000B75E44EA070A05EA0A0A04EA070B4AEA13
:105210000B0AD64410440990724405924FEAF02ECE
:105220008EEAB01E8EEA706E714489EA060E00EABC
:105230000E0E89EA0E0E8E4408F1050A5CF82A105B
:10524000714453F82AE071444FEA723E8EEAB20E7E
:105250008EEAB25E47EA020A04EA0A0A07EA020B89
:105260004AEA0B0AF24405EB010ECDF820E0514466
:1052700004914FEAFE2585EABE1585EA7E654D4418
:1052800086EA00090EEA090986EA090905EB090A16
:1052900008F106095CF82950554453F829904D440B
:1052A0004FEA713989EAB10989EAB15942EA010A3A
:1052B00007EA0A0A02EA010B4AEA0B0AD1442C4423
:1052C00007944D4403954FEAF42989EAB41989EA11
:1052D00074694E4480EA0E0E04EA0E0E80EA0E0057
:1052E000304408F107045CF82460304453F824404B
:1052F00020444FEA753484EAB50484EAB55441EA9F
:105300000506324029400A432244074406970244D6
:10531000029208F10808B8F13F0F7FF7AEAE002205
:1053200001980AE00AA901EB820151F8204C50F8DB
:105330002210214440F822100132072AF2DD1846DB
:10534000FCF7B2FC00200BB0BDE8F08F6FF07C00E2
:10535000F9E700BFA07E000820B108B5C166FFF7DD
:105360000FFE08BD6FF0AC0070472DE9F04100283A
:1053700000F0A6800D4616460746B9B1DDB1002FF4
:1053800000F09880E5B105B3386E3F2800F29580B3
:105390007A6EB3187B669A4202D9BB6E0133BB6644
:1053A00007F12004B0B94FF0000859E0002AE5D019
:1053B0006FF0AC0874E0002EE1D14FF000086FE010
:1053C000002EE0D06FF0AC086AE0002EDCD14FF088
:1053D000000865E0C0F14008B04528BFB04642462D
:1053E00029462044FAF7DCFE3B6E43443B664544C5
:1053F000A6EB0806402B02D04FF0000830E0002159
:105400000F290ED854F82120130A03F0FF131202BB
:1054100002F0FF2213434FEA334344F821300131B5
:10542000EEE721463846FFF7DDFD804690BB0023BE
:105430003B6615E054F82120130A03F0FF13120213
:1054400002F0FF2213434FEA334344F82130013185
:105450000F29EFD921463846FFF7C4FD8046D8B959
:105460003F2E19D92B46224605F14008D3F800E01B
:10547000D3F804C09868D968C2F800E0C2F804C044
:105480009060D160103310324345EFD14035403E3B
:105490000021DDE70026E3E7B8F1000F00D116B9DF
:1054A0004046BDE8F081324629462046FAF778FEAC
:1054B0003E66F5E76FF0AC08F2E76FF08308EFE7C0
:1054C0006FF0AC08ECE7002800F0868070B50E465F
:1054D0000446002900F08380002854D000F1200504
:1054E000036E5A1C02668022EA54006E38281FD9C7
:1054F000C0F140020021284400F0E6F84023236672
:1055000000210F290ED855F82120130A03F0FF13AC
:10551000120202F0FF2213434FEA334345F82130D1
:105520000131EEE729462046FFF75CFD48BB2066C7
:10553000206EC0F138020021284400F0C5F8626EE8
:10554000A36EDB0003EB5273A366D20062660021F8
:105550000DE055F82120130A03F0FF13120202F0A8
:10556000FF2213434FEA334345F8213001310F291D
:10557000EFD9A36EA365636EE36529462046FFF766
:1055800031FD18B170BD6FF0AC00FAE700210729BA
:105590000ED854F82120130A03F0FF13120202F070
:1055A000FF2213434FEA334344F821300131EEE741
:1055B00020686168A268E36830607160B260F3607F
:1055C00020696169A269E36930617161B261F36167
:1055D0002046FFF7D5FCD5E76FF0AC0070476FF0C1
:1055E000AC00CFE708B56FF001020021FFF7B4FE71
:1055F00008BD7047DFF834D0002103E00C4B5B5846
:10560000435004310B480C4B42189A42F6D30B4AD4
:1056100002E0002342F8043B094B9A42F9D3FBF71E
:105620008DF800F02DF8FAF7C5FF704700800120D3
:10563000B87F0008000000203C0400203C0400204B
:1056400084440020FEE70000002301461A46184665
:1056500000F0EAB838B5084B084D5B1B9C1007D02A
:10566000043B1D44013C55F804399847002CF9D1FE
:10567000BDE8384000F084BAB87F0008B47F000865
:1056800070B50D4E0D4D761BB61006D0002455F8A2
:10569000043B01349847A642F9D1094E094D761BC7
:1056A00000F068FAB61006D0002455F8043B013427
:1056B0009847A642F9D170BDAC7F0008AC7F0008C6
:1056C000B47F0008AC7F0008830730B548D0541E73
:1056D000002A3FD0CAB2034601E0013C3AD303F8A6
:1056E000012B9D07F9D1032C2DD9CDB245EA052513
:1056F0000F2C45EA054536D9A4F1100222F00F0C13
:1057000003F1200EE6444FEA121C03F1100242E9B5
:10571000045542E9025510327245F8D10CF10102EC
:1057200014F00C0F03EB021204F00F0C13D0ACF1C9
:10573000040323F003030433134442F8045B93424D
:10574000FBD10CF003042CB1CAB21C4403F8012BAA
:105750009C42FBD130BD64461346002CF4D1F9E7DE
:1057600003461446BFE71A46A446E0E780EA010272
:10577000844612F0030F4FD111F0030F32D14DF8D0
:10578000044D11F0040F51F8043B0BD0A3F101328A
:105790009A4312F0803F04BF4CF8043B51F8043B9D
:1057A00016D100BF51F8044BA3F101329A4312F015
:1057B000803FA4F101320BD14CF8043BA24312F01C
:1057C000803F04BF51F8043B4CF8044BEAD0234619
:1057D0000CF8013B13F0FF0F4FEA3323F8D15DF8CB
:1057E000044B704711F0010F06D011F8012B0CF893
:1057F000012B002A08BF704711F0020FBFD031F80B
:10580000022B12F0FF0F16BF2CF8022B8CF8002091
:1058100012F47F4FB3D1704711F8012B0CF8012B14
:10582000002AF9D1704700BF2DE9F8431D4D064607
:10583000286898460F46914600F042F81A4B1B68BC
:10584000D3F848411CB3286865681F2D24DC4EB985
:105850006B1C0235636044F8257000F033F80020BB
:10586000BDE8F88304EB85010123C1F88890D4F8E2
:105870008821AB401A43022EC4F88821C1F8088160
:10588000E6D1D4F88C211343C4F88C31E0E703F55A
:10589000A674C3F84841D6E700F014F84FF0FF3083
:1058A000DEE700BF38040020A07F0008024B13B1E0
:1058B0000248FFF7C9BE70470000000055560008B7
:1058C000704700BF704700BF2DE9F04F099E884622
:1058D0008E46154604461946002B40F0C7804245C7
:1058E000B2FA82F746D94FB1C7F1200C08FA07F394
:1058F00020FA0CFCBD404CEA030EBC404FEA1548B0
:105900001FFA85FCBEFBF8F9220C08FB19E309FB22
:105910000CFA42EA03439A4528D9EB1809F1FF3003
:1059200004D29A4502D9A9F102002B44A3EB0A0341
:10593000A4B2B3FBF8F208FB123302FB0CFC44EAFE
:105940000344A44514D92C1902F1FF3303D2A44512
:1059500001D9931E2C44A4EB0C0443EA00401EB171
:10596000FC40002334607360BDE8F08F4846DDE7FB
:105970001346F0E702B9FFDE8FBBA8EB020301215B
:105980004FEA154EAAB2B3FBFEFC200C0EFB1C33F3
:105990000CFB02F840EA0343984563D9EB180CF17D
:1059A000FF3004D2984502D9ACF102002B44A3EB9E
:1059B0000803A4B2B3FBFEFC0EFB1C330CFB02F28B
:1059C00044EA0344A2424FD92C190CF1FF3304D20C
:1059D000A24202D9ACF102032C44A41ABDE7C7F1DC
:1059E000200C28FA0CF908FA07F320FA0CFCBD4049
:1059F0004CEA03024FEA154EABB2B9FBFEFC110CA8
:105A00000EFB1C900CFB03F841EA0040804504FAB1
:105A100007F423D928180CF1FF3104D2804502D9AC
:105A2000ACF102012844A0EB080092B2B0FBFEFCEE
:105A30000EFB1C000CFB03F842EA004398450FD90B
:105A4000EB180CF1FF3204D2984502D9ACF10202F6
:105A50002B44A3EB080342EA014191E76146E2E7E8
:105A60006246F6E76046A2E76346B6E7434505D9D6
:105A70000EB1C6E900080021084675E7B3FA83FCB9
:105A8000BCF1000F10D1434501D382420AD8841AD9
:105A900068EB030301209E46002E68D0C6E9004E45
:105AA000002161E76046F7E7CCF1200E03FA0CF322
:105AB00022FA0EF41C4320FA0EF108FA0CF328FA2D
:105AC0000EFB19434FEA144902FA0CF5BBFBF9F837
:105AD000A3B209FB18BB0A0C08FB03FA42EA0B420B
